:04000000B031472BA9
:100006002B003908003A03193D28F1017108073C15
:10001600031C2A282F00A91B132821008D1315283D
:1000260021008D170630FD00FD0B172800000D1767
:100036000630FD00FD0B1D2800000D130630FD00E7
:10004600FD0B232800002F00A935F10A09282100FD
:100056008D170630FD00FD0B2E2800000D1706300B
:10006600FD00FD0B342800000D130630FD00FD0BCE
:060076003A28000008001A
:10007C002B003908003A03195C2821000D170630B3
:10008C00FD00FD0B472800008D170630FD00FD0B11
:10009C004D2800008D130630FD00FD0B5328000089
:0E00AC000D130630FD00FD0B59280000080062
:1000BA0027006F082F002407A7003E202B003C08CA
:1000CA002F00A90003202F00A90103202F002308D5
:1000DA00B03EA90003202F0027080F3C031C7928F3
:1000EA002708A100A6018A282708F200F236F2366C
:1000FA00F236F2367208A6007208F000F035F035D2
:10010A00F035F03570082702A1002108A900032064
:10011A002F002608103EA90003203E202B003C0891
:10012A002F00A900032040302F00A9000320080057
:10013A002000F801F9011030FC00710DF80DF90DDD
:10014A007408F8027508031C750FF9020318B4281D
:10015A007408F80775080318750FF9070310F00DEE
:08016A00F10DFC0BA2280800B6
:1001720020007008F100F0010830FC007108F40C56
:100182000318C728FC0BC028F10100340310CC2847
:10019200F40C0318F107F10CF00CFC0BC928080051
:1001A2002B003908003A0319E92821008D13063083
:1001B200FD00FD0BDA2800000D170630FD00FD0BD7
:1001C200E02800008D170630FD00FD0BE628000038
:0201D200080023
:1001D4007B15FB1FF4280130F300F201F101F0015B
:0801E400FA0DF20CFF300800D7
:0E01EC00F201F101F001F801F301003008000A
:1001FA002C00C8012B00BA010130BB002C004708B3
:10020A00C800C835C835C835C8352B003E0803199B
:10021A00112908302C00C8072B003B08031918299C
:10022A0004302C00C8072B003A0803191F29023092
:10023A002C00C8072B003D08031925292C00C80AE1
:10024A003E202B003C082F00A90003202C00480860
:10025A002F00A9000320D1200630FC003030FD0019
:10026A00FD0B3529FC0B3529000004302C00C8028F
:10027A003E202B003C082F00A90003202C00480830
:10028A002F00A9000320D1200630FC003030FD00E9
:0C029A00FD0B4D29FC0B4D290000080055
:0A02A6001D30FD00FD0B5529080076
:1002B000FB14FB1F6229FF30F300F200F100F00095
:0802C000FA0DF20CFF300800FA
:0802C800FA1FF21300300800D8
:1002D0003E202B003C082F00A900032040302F00B7
:1002E000A90003202C0048082F00A3002C00470879
:1002F0002F00A4005D202C00CC014B084C020318F9
:100300005B2A4C084907840000304A3D85000008FC
:10031000003A031D8D29CE0196294C084907840017
:1003200000304A3D850020300002CE00CD014D084E
:10033000043C031C522A4E08F0000530F400B9209A
:100340002C004D08F0070030F13DC53070078400E7
:10035000B530713D85000008CF004808023A0130F1
:1003600003190030F1004808043A01300319003045
:10037000F0007008F1054808063A01300319003012
:10038000F0007108F0050319052ACF19CA292F00BA
:10039000A013CC292F00A0172C00CF19D2292F0091
:1003A0002013D4292F0020172C004F19DA292F00F1
:1003B000A012DC292F00A0162C004F19E2292F00D3
:1003C0002012E4292F0020162C00CF18EA292F0034
:1003D000A011EC292F00A0152C00CF18F2292F0016
:1003E0002011F4292F0020152C004F18FA292F0076
:1003F000A010FC292F00A0142C004F18022A2F0057
:100400002010042A2F002014372A2C004F190B2A01
:100410002F00A0130D2A2F00A0172C004F19132A0C
:100420002F002013152A2F0020172C00CF181B2A6D
:100430002F00A0121D2A2F00A0162C00CF18232A4F
:100440002F002012252A2F0020162C004F182B2AAF
:100450002F00A0112D2A2F00A0152C004F18332A91
:100460002F002011352A2F002015A0102010200861
:10047000A90003202B003908043A0130031D003085
:10048000F1003908053A0130031D0030F000710811
:10049000F00403194F2A2F002008A90003202C0084
:1004A000CD0A97292F00A90103202F00A9010320BD
:1004B0002C00CC0A7D29480A2F00A3002C004708F5
:1004C0002F00A4005D202C00CC014B084C02031827
:1004D000512B4C084907840000304A3D8500000834
:1004E000003A031D752ACE017E2A4C084907840074
:1004F00000304A3D850020300002CE00CD014D087D
:10050000043C031C482B4E08F0000530F400B920D1
:100510002C004D08F0070030F13DC5307007840015
:10052000B530713D85000008CF004808023A01301F
:1005300003190030F1004808043A01300319003073
:10054000F0007008F1054808063A01300319003040
:10055000F0007108F0050319ED2ACF1BB22A2F0015
:10056000A013B42A2F00A0172C00CF1BBA2A2F00EB
:100570002013BC2A2F0020172C004F1BC22A2F004B
:10058000A012C42A2F00A0162C004F1BCA2A2F002D
:100590002012CC2A2F0020162C00CF1AD22A2F008E
:1005A000A011D42A2F00A0152C00CF1ADA2A2F0070
:1005B0002011DC2A2F0020152C004F1AE22A2F00D0
:1005C000A010E42A2F00A0142C004F1AEA2A2F00B2
:1005D0002010EC2A2F0020142D2B2C004F1BF32A67
:1005E0002F00A013F52A2F00A0172C004F1BFB2A69
:1005F0002F002013FD2A2F0020172C00CF1A032BC9
:100600002F00A012052B2F00A0162C00CF1A0B2BA9
:100610002F0020120D2B2F0020162C004F1A132B09
:100620002F00A011152B2F00A0152C004F1A1B2BEB
:100630002F0020111D2B2F0020152C00CF19232B4C
:100640002F00A010252B2F00A0142C00CF192B2B2E
:100650002F0020102D2B2F0020142008A90003208C
:100660002B003908043A0130031D0030F10039082D
:10067000053A0130031D0030F0007108F004031941
:10068000452B2F002008A90003202C00CD0A7F2A2B
:100690002F00A90103202F00A90103202C00CC0A60
:0606A000652AD1200800CC
:1006A6002C00CB0105304B020318632B4B0849077E
:1006B600860000304A3D870020308100CB0A552B4A
:1006C6004B084907860000304A3D87008101CB036D
:1006D6004B084907CC0000304A3DCD000A30F400F3
:1006E600F5014708F0004808F1009D207808F00061
:1006F6007908F1003030F0072C004C0886004D08D0
:100706008700700881000A30F400F5014708F00000
:100716004808F1009D2070082C00C7007108C80029
:1007260000307106031D992B00307006031D9C2BAB
:080736009E2BCB036B2B080086
:10073E00833021009D052C003D08F000F035F0358A
:10074E00700821009D0453219D149D1CAF2BAC2BD2
:10075E001C08F100F0011B08F0040030F104080041
:10076E007408F8027508031C750FF9027608031C4D
:10077E00760FFA027708031C770FFB02F30D073092
:10078E00FC00730DF80DF90DFA0DFB0D7408731CBA
:10079E00DE2BF8027508031C750FF9027608031C90
:1007AE00760FFA027708031C770FFB02EB2BF80784
:1007BE0075080318750FF90776080318760FFA07F0
:1007CE0077080318770FFB07F30DFC0BC82B720D80
:1007DE00F80DF90DFA0DFB0D7408731C042CF802BC
:1007EE007508031C750FF9027608031C760FFA02C2
:1007FE007708031C770FFB02112CF80775080318F6
:10080E00750FF90776080318760FFA07770803189D
:10081E00770FFB07F20D0730FC00720DF80DF90D86
:10082E00FA0DFB0D7408721C2A2CF8027508031CB5
:10083E00750FF9027608031C760FFA027708031C6F
:10084E00770FFB02372CF80775080318750FF90799
:10085E0076080318760FFA0777080318770FFB0749
:10086E00F20DFC0B142C710DF80DF90DFA0DFB0D9C
:10087E007408721C502CF8027508031C750FF902CF
:10088E007608031C760FFA027708031C770FFB021B
:10089E005D2CF80775080318750FF907760803180D
:1008AE00760FFA0777080318770FFB07F10D07305D
:1008BE00FC00710DF80DF90DFA0DFB0D7408711C8D
:1008CE00762CF8027508031C750FF9027608031CC6
:1008DE00760FFA027708031C770FFB02832CF807BA
:1008EE0075080318750FF90776080318760FFA07BF
:1008FE0077080318770FFB07F10DFC0B602C700DBA
:10090E00F80DF90DFA0DFB0D7408711C9C2CF802F4
:10091E007508031C750FF9027608031C760FFA0290
:10092E007708031C770FFB02A92CF807750803182C
:10093E00750FF90776080318760FFA07770803186C
:10094E00770FFB07F00D0730FC00700DF80DF90D59
:10095E00FA0DFB0D7408701CC22CF8027508031CEE
:10096E00750FF9027608031C760FFA027708031C3E
:10097E00770FFB02CF2CF80775080318750FF907D0
:10098E0076080318760FFA0777080318770FFB0718
:10099E00F00DFC0BAC2C7018E22C7408F8077508DF
:1009AE000318750FF90776080318760FFA077708FC
:0809BE000318770FFB07080086
:1009C6007C18192DFC18EA2C7C19382DE32CA10172
:1009D6007208031D0A2D7108F2007008F1007808EC
:1009E600F000F801A1157208031D0A2D7108F20026
:1009F6007008F100F001A11121167208031D0A2DDD
:100A06007108F200F101A115720803192C2D2108B5
:100A1600F302031D031C302D0310F21B192DF80DD4
:100A2600F00DF10DF20DF30B102D302D7B1B701C0C
:100A3600342DF81F342DF00A0319F10A0319F20AAE
:100A4600031D342DF20CF10CF00CF30A0319382DAA
:100A5600342D0130FC00F6203B2D0230FC00EA204C
:100A66003B2D0430FC0064213B2D0830FC0058214E
:040A76000000080074
:100A7A0020002230FC00F801F901FA01FB01FC0315
:100A8A000319722D0310FB0CFA0CF90CF80CF30C79
:100A9A00F20CF10CF00C031C442DFC030319642D19
:100AAA007408F80775080318750FF907760803180C
:100ABA00760FFA0777080318770FFB07482D740893
:100ACA00F80775080318750FF90776080318760FE3
:0C0ADA00FA0777080318770FFB070800E5
:100AE6002B003908043A0130031D0030F1003908A3
:100AF600053A0130031D0030F0007108F0040319B7
:100B0600912D2C003E08C7003D08C8003F08C900CB
:100B16004008CA004108CB006821EB2D2B0039089C
:100B2600023A0130031D0030F1003908033A013062
:100B3600031D0030F0007108F0040319B72D2C00D6
:100B46003E08F0000730F400B920043070072C008E
:100B5600C7003D08C800C8353F08C9004008CA009C
:100B66004108CB006821EB2D2B00BD012C003D0870
:100B7600F000F035F0357008083EC700FD202C0067
:100B86003E08C700FD2001302B00BD002C00C2012D
:100B9600410842020318EB2D42083F07840000304B
:100BA600403D85000008F1007108C700C736C7360A
:100BB600C736C736FD202C0042083F0784000030A8
:100BC600403D85000008C700FD202C00C20ACB2D41
:020BD600080015
:100BD8000330FC009530FD00FD0BF02DFC0BF02DD3
:020BE800080003
:100BEA00A1017208031D0A2E7108F2007008F100B3
:100BFA00F001A1157208031D0A2E7108F200F10115
:100C0A00A111211672080319182E2108F302031DD7
:100C1A00031C1C2E0310F21B202EF00DF10DF20DF9
:100C2A00F30B102E1C2E0130FC00F620232E02306E
:0E0C3A00FC00EA20232E0430FC006421080098
:100C48002C00C301C4013D08C5003E08C600803021
:100C58003E06F00080307002031D342E00303D0245
:100C68000318422E0130C3000030C4003D08003C88
:100C7800C5003E08031C013EC601C6024508C70060
:100C88004608C8003F08C9004008CA005323063078
:100C9800C1000030C2004208003C031D552E410827
:100CA800003C0318702E41083F0786004208403D6B
:100CB800870001304102F0000030423BF10070082B
:100CC8003F0784007108403D85000008810001301D
:100CD800C1020030C23B4F2E3F0886004008870003
:100CE80020308100430844040319962EC101C20133
:100CF80041083F0784004208403D85000008203A2B
:100D0800031D8A2EC10A0319C20A7C2E0130C102B2
:100D18000030C23B41083F0786004208403D87003B
:060D28002D3081000800DF
:100D2E007B14FB1FA22EF201FA1FFF30F200F1001E
:0A0D3E00F000FA0DF20CFF3008007F
:100D4800FB09FA09F909F809F80A0319F90A031954
:080D5800FA0A0319FB0A080066
:060D6000FB15FF30080046
:100D66002000FA017308031D7A147708031DFA148C
:100D76007A080319FE2E033A0319C92E7A18C62ECD
:100D8600F61FFC2EFA2EF21FFA2EFC2E7208803960
:100D9600FA00F21376088039F6137A060319D72E6D
:100DA6007A080319FA2EFC2E770873020319DE2E31
:100DB600031CF22EF62E760872020319E52E031C8A
:100DC600F22EF62E750871020319EC2E031CF22E74
:100DD600F62E740870020319FE2E0318F62EFA0872
:100DE6000319FC2EFA2EFA080319FA2EFC2E031408
:0E0DF60008000310080003140315080008008D
:100E04003E202B003C082F00A900032080302F0037
:100E1400A90003202C0036082F00A9000320D120AC
:020E24000800C4
:100E26002000FB01730803194F2F7208FA00F2170E
:100E36008E30F302F31F522FF309F30A08307302C0
:100E4600031C352FF300F10D7208F100F201083092
:100E56007302031C352FF300F10DF1017308031D16
:100E660003103D2F730803193D2F0310F20CF10CEC
:100E7600F30B382F7B1B711C472F031C472FF10ADE
:100E86000319F20AF21B5E2FFA1F612FF209F1090C
:100E9600F10A0319F20A612FF201F101612F7B14A5
:100EA600FB1F642FF201FA1F642FFF30F200F100DE
:100EB600FA0DF20C642F0130FC00662F0030FC00A6
:100EC600662FFF30FC00FC0803196A2F972671086D
:080ED600F0007208F1000800B1
:100EDE0020007008F800FB01FC019E30F300FA01BF
:0E0EEE00F201F101F0010230FC00E3240800E3
:100EFC002000FB017308031D77080319D42F720817
:100F0C007606FA007708F3077E30031C912FF30264
:100F1C000318D72F942FF302031CDA2F7208F80052
:100F2C007108FC007008FD00F817F6170310F201A9
:100F3C00F101F0011830A1007D1CAE2F7408F007F0
:100F4C0075080318750FF10776080318760FF2076A
:100F5C00F20CF10CF00CF80CFC0CFD0C0310A10BBA
:100F6C00A22FF21BBE2FF80DF00DF10DF20DF303B5
:100F7C007B1B701CD02FF81FD02FF00A0319F10A1D
:100F8C000319F20A031DD02FF20CF10CF00CF30A2A
:100F9C000319D72FFA1FF2130030DC2F0130F62083
:100FAC00DC2F02305821DC2F0430EA20000008002E
:100FBC0020007008F8007108F000F101F201F30153
:100FCC00FB01FC019630F300FA01F01FF32FF80936
:100FDC00F009F80A0319F00AFA177008F1007808FA
:0A0FEC00F000F801F201F5250800FD
:020FF6000800F1
:1010000064002800EC01ED0126003A1C0C282800A1
:101010006E08EC076F08ED3D2600BA1C17282B0060
:1010200024082800EC072B0025082800ED3D2600A9
:101030003A1D22282B0022082800EC072B00230849
:101040002800ED3D2600BA1D2D282B002008280081
:10105000EC072B0021082800ED3D26003A1E35281C
:1010600028006A08EC076B08ED3D2600BA1E3D28F3
:1010700028006108EC076208ED3D26003A1F45286C
:1010800028005F08EC076008ED3D28008030273A13
:10109000F00080306D067002031D50286C080F3C74
:1010A0000318722832306C07F00000306D3DF100FB
:1010B0007008EC007108ED0070082C00BD0071088C
:1010C000BE005830BF000430C00080312426883173
:1010D00028005908E3005A08E4002E30E5005B08B8
:1010E000E6009E286C082C00BD0028006D082C002E
:1010F000BE005830BF000430C00080312426883143
:1011000028005A08203A031988285A08E3008A2838
:101110003030E3002E30E4005B08203A03199328B6
:101120005B08E50095283030E5005C08203A03199B
:101130009C285C08E6009E283030E6002B0045081D
:10114000043A0130031D0030F1004508053A013032
:10115000031D0030F0007108F0040319E528260093
:101160003C08013A031DB82804302C00B600BB2807
:101170002C000630B6003608BD001030BE00273007
:10118000BF000130C0000230C100803173258831BA
:101190002C003608BD005830BE002430BF0001309E
:1011A000C0000230C1008031732588312C00360820
:1011B000BD002830BE006330BF000430C0000430E2
:1011C000C10080317325883164292B004508023A1B
:1011D0000130031D0030F1004508033A0130031DC2
:1011E0000030F0007108F00403192B2926003C0898
:1011F000013A031DFE282C00B60101292C00013004
:10120000B6003608BD000930BE002130BF000130F5
:10121000C0000230C1008031732588312C003608AF
:10122000BD000F30BE005030BF000130C0000230A2
:10123000C1008031732588312C003608BD000B3089
:10124000BE006330BF000430C0000430C1008031F4
:101250007325883164292B004508013A031D642950
:1012600026003C08013A031D38292C00B6013B2911
:101270002C000130B6003608BD000930BE004D30EC
:10128000BF000130C0000230C100803173258831B9
:101290002C003608BD000F30BE004B30BF000130BF
:1012A000C0000130C1008031732588312C00360820
:1012B000BD000B30BE006330BF000430C0000430FE
:1012C000C10080317325883164002800EC01ED01F4
:1012D0002600391C73292B002C082800EC072B0052
:1012E0002D082800ED3D2600B91C7E292B00320870
:1012F0002800EC072B0033082800ED3D2600391D9F
:1013000089292B0030082800EC072B003108280021
:10131000ED3D2600B91D94292B002E082800EC076E
:101320002B002F082800ED3D2600391E9F292B0099
:101330002A082800EC072B002B082800ED3D26008A
:10134000B91EAA292B0028082800EC072B00290821
:101350002800ED3D2600391FB5292B00260828005E
:10136000EC072B0027082800ED3D28006C082C0016
:10137000BD0028006D082C00BE005830BF000430AE
:10138000C00080312426883128005A08E3005B0819
:10139000E4005C08E5005D08E6002B004508043A1F
:1013A0000130031D0030F1004508053A0130031DEE
:1013B0000030F0007108F0040319142A26003C08DC
:1013C000013A031DE72906302C00B600EA292C005B
:1013D0000430B6003608BD001030BE003C30BF00FF
:1013E0000130C0000230C1008031732588312C00EB
:1013F0003608BD005830BE003F30BF000130C0008D
:101400000230C1008031732588312C003608BD00C0
:101410002830BE006330BF000430C0000430C1007B
:10142000803173258831932A2B004508023A013018
:10143000031D0030F1004508033A0130031D003060
:10144000F0007108F00403195A2A26003C08013AFA
:10145000031D2E2A01302C00B600302A2C00B601C4
:101460003608BD000930BE004830BF000130C00062
:101470000230C1008031732588312C003608BD0050
:101480000F30BE004530BF000130C0000230C10047
:101490008031732588312C003608BD000B30BE002A
:1014A0006330BF000430C0000430C10080317325B8
:1014B0008831932A2B004508013A031D932A260000
:1014C0003C08013A031D682A01302C00B6006A2A44
:1014D0002C00B6013608BD000930BE004230BF0006
:1014E0000130C0000230C1008031732588312C00EA
:1014F0003608BD000F30BE006C30BF000030C000A9
:101500000130C1008031732588312C003608BD00C0
:101510000B30BE006330BF000430C0000430C10097
:0A1520008031732588316400080053
:10152A00200072087606A100F801F9017308770213
:10153A00031CB72A7708FD007308F7007D08F3003B
:10154A007608FD007208F6007D08F2007508FD00B5
:10155A007108F5007D08F1007408FD007008F400B8
:10156A007D08F00077080319382B7208FA00F21781
:10157A00F61777087302F7000319EA2A0830770288
:10158A00031CE02AF7007408F9007508F4007608CD
:10159A00F500F60108307702031CE02AF700740808
:1015AA00F9007508F400F50108307702031CE02AF7
:1015BA007A08F200382B77080319EA2A0310F60C86
:1015CA00F50CF40CF90CF70BE32AA11FF72AF90919
:1015DA00F409F509F609F90A0319F40A0319F50ACF
:1015EA000319F60A7908F80774080318740FF00744
:1015FA0075080318750FF10776080318760FF207B6
:10160A00A11B102B031C202BF20CF10CF00CF80C74
:10161A00F30F202B322B0318262BF809F009F109B6
:10162A00F209F80A0319F00A0319F10A0319F20A6E
:10163A008030FA062C2B0130FC008031E3248831FB
:10164A003A2B0230FC008031E32488313A2B0430F3
:10165A00FC008031F52588313A2B0830FC008031B6
:0E166A00582188313A2B0030FC0000000800A7
:101678007408003A031D552B7508003A031D552BB5
:101688007608003A031D552B7708003A031D552BA1
:10169800FF30F000FF30F1007F30F200FF30F30040
:1016A8000800200077080319E32B73080319E82BB7
:1016B800720876068039FA00F217F617A101720847
:1016C800F8007108FC007008FD007408FD02750838
:1016D800031C750FFC027608031C760FF802F8014C
:1016E800FC01FD01031C7F2B0310F20CF10CF00C24
:1016F800F80C0130A1007708F302031C892B7E3017
:101708002107F3070318ED2B8E2B7E302107F307F3
:10171800031CF22B1830FA07FD0DFC0DF80DF00D27
:10172800F10DF20DA10D7408F0027508031C750F78
:10173800F1027608031C760FF202760DA104211C33
:10174800A72B7D14B22B7408F00775080318750FC2
:10175800F10776080318760AF2077D10FA031F309E
:101768007A05031D902B7B1B7D1CD92B0310F00DD4
:10177800F10DF20DA10D7408F0027508031C750F28
:10178800F1027608031C760FF202760D2104013966
:10179800FD070318FC0A0319F80A031DD92BF80CD6
:1017A800FC0CFD0CF30A0319ED2BFA1FF81378084B
:1017B800F2007C08F1007D08F0000030F62B0130C3
:1017C8008031B0268831F62B02308031F6208831FE
:1017D800F62B0430803158218831F62B08308031BF
:0817E800EA208831000008002E
:1017F0007408003A031D112C7508003A031D112CC2
:101800007608003A031D112C7708003A031D112CAD
:10181000FF30F000FF30F100FF30F2007F30F300C6
:1018200008002000FC01F71BFC0AFD01FB01FA0186
:10183000F901F80173087204710470040319A62CED
:1018400073087706A000A01BFD09F71F322CF409CE
:10185000F509F609F709F40A0319F50A0319F60A56
:101860000319F70AF31F3F2CF009F109F209F309F4
:10187000F00A0319F10A0319F20A0319F30A7308AB
:101880007704A000A01B622C8031B7238831FC1B99
:101890007F2CFD1FA62CF009F109F209F309F00ACB
:1018A0000319F10A0319F20A0319F30AF809F909ED
:1018B000FA09FB09F80A0319F90A0319FA0A0319C4
:1018C000FB0AA62CF71F792CF31B732C7308FB0063
:1018D0007208FA007108F9007008F800F301F201CB
:1018E000F101F001492CF301F201F101F001F00ADC
:1018F0000034F309F209F109F009FC17442CF80A45
:101900000319F90A0319FA0A0319FB0A7408780281
:10191000031D492C75087902031D492C76087A02AB
:10192000031D492C77087B02031D492CFB01FA019A
:10193000F901F801F00A0319F10A0319F20A03196F
:10194000F30AF31F492CA0012016FF34A0017C1CD0
:0C195000AC2C8031A4268831003E080039
:10195C00813022009700171BB42CB12C01302C00C5
:10196C00BD0080319F23883170082C00B6007108AF
:10197C00B7008030033AF200803071067202031D0A
:10198C00C92C7008E83C031CD02C3608F000370832
:10199C00F1000800220082309700171BD62CD32CA4
:1019AC0001302C00BD0080319F23883170082C0041
:1019BC00B6007108B7008030033AF200803071062F
:1019CC007202031DEB2C7008E83C031CF42C360847
:1019DC00F0003708F100F035F10D080022008330DB
:1019EC009700171BFA2CF72C01302C00BD0080310E
:1019FC009F23883170082C00B6007108B700803026
:101A0C00033AF200803071067202031D0F2D70082C
:101A1C00E83C0318152D01302600E100172D260097
:101A2C00E1012C003608F0003708F100F035F10D1B
:061A3C00F035F10D080079
:101A4200813022009700171B272D242D2C00BD0169
:101A520080319F23883170082C00B6007108B700CE
:101A62008030033AF200803071067202031D3B2D72
:101A72007008E83C031C422D3608F0003708F100DC
:101A82000800220082309700171B482D452D2C009C
:101A9200BD0180319F23883170082C00B600710887
:101AA200B7008030033AF200803071067202031DE3
:101AB2005C2D7008E83C031C652D3608F0003708E1
:101AC200F100F035F10D0800220083309700171B5A
:101AD2006B2D682D2C00BD0180319F238831700849
:101AE2002C00B6007108B7007008F2007108F3000C
:101AF200F235F30DF235F30D7208F0007308F100C0
:021B02000800D9
:101B040020007008F8007108F0007208F1007308F2
:101B1400F200F301FB01FC019E30F300FA01F21F15
:101B24009F2DF809F009F109F209F80A0319F00ADE
:101B34000319F10A0319F20AFA170230FC00803182
:061B4400E32488310800D3
:101B4A002C00BC013808F1000130F00071080319BB
:101B5A00B12DF035FF3EAC2D7008BB00360884006D
:101B6A003708850070080005F10071080130031D6F
:101B7A000030F0003A08F0060319E12D3908003C5C
:101B8A000318CF2D8031EC2588318031EC2588313E
:101B9A00B903C32D36088400370885003B080005C1
:101BAA00F10071080130031D0030F0003A08F00618
:0E1BBA000319E12DFF30BC003C08F0000800CC
:101BC8008030F00080302C0037067002031DEE2DA7
:101BD8003608503C031CF32DF001F1010800803059
:101BE800F000803037067002031DFC2D3608AB3C30
:101BF800031C032EF430B6070030B73DC22E8030E8
:101C0800013AF000803037067002031D0D2E3608A9
:101C1800483C031C142EFE30B6070030B73DC22ED8
:101C28008030023AF000803037067002031D1E2E05
:101C38003608463C031C252E1830B6070130B73D40
:101C4800C22E8030033AF000803037067002031D40
:101C58002F2E3608343C031C362E2930B6070130A7
:101C6800B73DC22E8030043AF0008030370670024B
:101C7800031D402E36084C3C031C472E3630B60751
:101C88000130B73DC22E8030083AF0008030370668
:101C98007002031D512E3608853C031C582EAE30A9
:101CA800B6070130B73DC22E80300C3AF0008030C4
:101CB80037067002031D622E3608FA3C031C692E93
:101CC800E430B6070130B73DC22E8030123AF0003A
:101CD800803037067002031D732E36080F3C031C34
:101CE8007A2E1230B6070230B73DC22E8030163A2F
:101CF800F000803037067002031D842E3608E63C5B
:101D0800031C8B2E8830B6070230B73DC22E8030B8
:101D18001B3AF000803037067002031D952E3608F6
:101D2800EA3C031C9C2EE730B6070230B73DC22EB2
:101D38008030213AF000803037067002031DA62E4D
:101D48003608363C031CAD2E2030B6070330B73DAD
:101D5800C22E8030293AF000803037067002031D09
:101D6800B72E3608043C031CBE2E4830B607033095
:101D7800B73DC22E5C30B6070330B73D3608F000D9
:061D88003708F10008001D
:101D8E002000FB01FA01F9018030F800F10CF00C93
:101D9E00031CDA2E7408F90775080318750FFA0775
:101DAE000318FB0A0310F01FE22E7408FA077508D9
:101DBE000318750FFB07FB0CFA0CF90CF80C031C3F
:101DCE00CD2E7B08F3007A08F2007908F10078082E
:041DDE00F000080009
:101DE200A0302C00B8000F30B900BA01BB01360890
:101DF200F0003708F100F201F301A030F4000F30D7
:101E0200F5000030F6000030F70080313D258831C2
:101E120070082C00B8007108B9007208BA00730883
:101E2200BB0000307302031D202F00307202031D1D
:101E3200202F02307102031D202FB23070020318CE
:101E4200232F08002C00B230B8020230B93B003018
:101E5200BA3BBB3B0530F00070080319362FBB3686
:101E6200BA0CB90CB80CFF3E2E2F3808F000390816
:101E7200F1003A08F2003B08F3000130B8020030EA
:101E8200B93BBA3BBB3B700871047204730403197B
:101E9200532F0000000000000000000000000000BE
:061EA2000000362F0800CD
:101EA8000D302C00B6000030B700B8011930B90069
:101EB800BA01A52570082B00EE000D302C00B600E5
:101EC8000030B7000130B8001930B900BA01A525B3
:101ED80070082B00EE040D302C00B6000030B7005F
:101EE8000230B8001930B900BA01A5252B006E08D8
:0E1EF800F0040319822F01302700E9000800D2
:101F06002B003908013C03188F2FAF302C00B60088
:101F1600803102278831A12F2B003908013A031D91
:101F2600A12F0130BE00BD012C00C7018031FD206C
:0E1F360088312C00C7018031FD208831080061
:101F44002B006E18A82F22008E13AA2F22008E17A2
:101F54002B00EE18B02F22008E11B22F22008E1506
:101F64002B006E19B82F22000E13BA2F22000E1761
:101F74002B00EE19C02F22000E11C22F22000E15C5
:101F84002B006E1AC82F22008E12CA2F22008E1622
:101F94002B00EE1AD02F22008E10D22F22008E1486
:101FA4002B006E1BD82F22000E12DA2F22000E16E1
:101FB4002B0043082C00B6002B0044082C00B7006B
:041FC400F1260800FA
:101FC8002600BA01B9012B00EE019031C2258831F3
:101FD800260039082B00EE00A2272B0043082C000E
:0E1FE800B6002B0044082C00B700F1260800BC
:1020000000302C00A6000030A7004830A800853022
:10201000A900640020006E08003A0130031D003062
:10202000F10021002E08013A0130031D0030F000BC
:102030007008F10580302C002306F000803070021B
:10204000031D2428643022020130031C0030F000FC
:102050007108F0050319EA2826002A08003A031D32
:10206000E6282B004508043A0130031D0030F1003A
:102070004508053A0130031D0030F0007108F004F6
:102080000319732820006F08013A031D56280430F5
:102090002C00BD001030BE00A530BF000030C000D5
:1020A0000830C100803173259031642804302C0041
:1020B000BD001030BE005E30BF000030C0000830F0
:1020C000C10080317325903106302C00BD001030E6
:1020D000BE003430BF000030C0000830C100803185
:1020E00073259031E6282B004508023A0130031D84
:1020F0000030F1004508033A0130031D0030F000C4
:102100007108F0040319B32820006F08013A031D79
:1021100097282C00BD010930BE002B30BF000030D5
:10212000C0000830C100803173259031A4282C00F4
:10213000BD010930BE002230BF000030C0000830B1
:10214000C10080317325903101302C00BD00093071
:10215000BE003D30BF000030C0000830C1008031FB
:1021600073259031E6282B004508013A031DE62827
:1021700020006F08013A031DCB282C00BD01093057
:10218000BE005630BF000030C0000730C1008031B3
:1021900073259031D8282C00BD010930BE004E3087
:1021A000BF000030C0000730C1008031732590317E
:1021B00001302C00BD000930BE004630BF000030A9
:1021C000C0000730C10080317325903101302600F6
:1021D000AA00F42826002A08013A031DF2288831B3
:1021E000002090312600AA0164002C00210826005E
:1021F0006D06031DFE286C082C0020060319E72C31
:102200002C0020082600EC002C0021082600ED0000
:1022100020006F08003A031D5C2980302C00210645
:10222000F00080307002031D172964302002031C67
:10223000382905302007F0000030213DF1007008FA
:10224000A0007108A1007008BD007108BE005830E0
:10225000BF000430C00080312426903128005A0885
:10226000E3005B08E4005C08E5005730E6005B290A
:102270002C002008BD002108BE005830BF000430EB
:10228000C00080312426903128005C08203A0319D0
:102290004C295C08E3004E293030E3002E30E40086
:1022A0005D08203A031957295D08E50059293030A7
:1022B000E5005730E600932980302C002106F0001D
:1022C0008030033A7002031D6729E73020020318AB
:1022D0007E292008BD002108BE005830BF00043010
:1022E000C00080312426903128005B08E3005C08A0
:1022F000E4005D08E5005730E60093292C00200833
:10230000BD002108BE005830BF000430C00080313D
:102310002426903128005A08E3005B08E4005C089A
:10232000E5005D08E6002B004508043A0130031D76
:102330000030F1004508053A0130031D0030F0007F
:102340007108F0040319B2292C00BD014030BE0011
:102350006330BF000430C0000430C10080317325F9
:102360009031C4292B004508003A0319C4292C00D8
:10237000BD010430BE006330BF000430C000043033
:10238000C100803173259031640026002A08013A8B
:10239000031DE72C3A08003A0130031D0030F1001C
:1023A0003908003A0130031D0030F0007108F005D3
:1023B0000319E2292C0022082800D6002C0023084B
:1023C0002800D70028005608F0005708F100803197
:1023D000DE27903170082C00B2007108B30072083B
:1023E000B4007308B5000030F4000030F500483048
:1023F000F6008530F7003208F0003308F1003408A9
:10240000F2003508F30088313C23903170082C002D
:10241000AE007108AF007208B0007308B100320856
:10242000F4003308F5003408F6003508F7000030F2
:10243000F0000030F1004830F2008530F3008831C0
:102440003C2390312C002E08F4002F08F5003008B2
:10245000F6003108F70088319522903170082C0081
:10246000AE007108AF007208B0007308B100270019
:102470006E08F00080316F2790312C002E08F40098
:102480002F08F5003008F6003108F70080317E276C
:1024900090310030F4000030F5002030F60082303A
:1024A000F70088313C2390311F30F4008530F5006F
:1024B0006B30F6007B30F70080317E2790310030A2
:1024C000F4000030F5000030F6007F30F70088316E
:1024D000952290317008F4007108F5007208F6003A
:1024E0007308F7000030F0000030F1000030F20017
:1024F0007F30F30088313C23903170082C00A60017
:102500007108A7007208A8007308A9002208F0004B
:102510002308F1008031DE27903170082C00B200D2
:102520007108B3007208B4007308B5000030F400FD
:102530000030F5004830F6008530F7003208F00032
:102540003308F1003408F2003508F30088313C23E9
:1025500090310030F4000030F5000030F60080309B
:10256000F70088319522903170082C00AE00710878
:10257000AF007208B0007308B1003208F4003308ED
:10258000F5003408F6003508F7000030F0000030A0
:10259000F1004830F2008530F30088313C2390315F
:1025A0002C002E08F4002F08F5003008F600310842
:1025B000F7008831952290317008F4007108F50019
:1025C0007208F6007308F7000030F0000030F100E8
:1025D0000030F2008130F30088313C2390317008E4
:1025E0002C00AA007108AB007208AC007308AD00A3
:1025F0000030F4000030F5000030F6007F30F700C6
:102600002608F0002708F1002808F2002908F30046
:102610008031B32690310130031C0030F000700887
:1026200003191B2B00302C00A6000030A70000303F
:10263000A8007F30A9002C000030F4000030F50025
:102640000030F6007F30F7002A08F0002B08F10078
:102650002C08F2002D08F3008031B32690310130B0
:10266000031C0030F000700803193F2B00302C00D1
:10267000AA000030AB000030AC007F30AD002C0071
:102680002008F0002108F1008031DE2790312C0075
:102690002608F4002708F5002808F6002908F700A6
:1026A00080317E2790312C002A08F4002B08F50099
:1026B0002C08F6002D08F70080317E2790318031FC
:1026C0001327903170082B00EE007108EF002C00EA
:1026D0002608F0002708F1002808F2002908F30076
:1026E0002A08F4002B08F5002C08F6002D08F70046
:1026F00080317E2790310030F4000030F500483002
:10270000F6008530F70080317E2790318031132725
:10271000903170082C00A4007108A500803071066B
:10272000F20080307202031D972B64307002031C8C
:102730009D2B6330A4000030A50020006F08003AF4
:10274000031DF52B80302B006F06F00080307002E7
:10275000031DAC2B64306E02031CCE2B05306E07BC
:10276000F00000306F3DF1007008EE007108EF00DE
:1027700070082C00BD007108BE005830BF00043046
:10278000C00080312426903128005A08E3005B08FD
:10279000E4005C08E5005730E600F42B2B006E08DF
:1027A0002C00BD002B006F082C00BE005830BF006D
:1027B0000430C00080312426903128005C08203A83
:1027C0000319E52B5C08E300E72B3030E3002E30E3
:1027D000E4005D08203A0319F02B5D08E500F22BB8
:1027E0003030E5005730E600322C80302B006F0689
:1027F000F0008030033A7002031D002CE7306E02B7
:1028000003181A2C6E082C00BD002B006F082C003A
:10281000BE005830BF000430C00080312426903103
:1028200028005B08E3005C08E4005D08E500573021
:10283000E600322C2B006E082C00BD002B006F0828
:102840002C00BE005830BF000430C0008031242668
:10285000903128005A08E3005B08E4005C08E500BA
:102860005D08E6002B004508043A0130031D0030E6
:10287000F1004508053A0130031D0030F0007108F1
:10288000F0040319522C04302C00BD004030BE006F
:102890006330BF000430C0000430C10080317325B4
:1028A0009031832C2B004508023A0130031D003083
:1028B000F1004508033A0130031D0030F0007108B3
:1028C000F0040319712C2C00BD010D30BE006330E3
:1028D000BF000430C0000430C10080317325903146
:1028E000832C2B004508003A0319832C2C00BD01D2
:1028F0000C30BE006330BF000430C0000430C100A3
:102900008031732590312C002408BD002508BE00BD
:102910005830BF000430C000803124269031280098
:102920005C08E3005D08E4002B004508043A013030
:10293000031D0030F1004508053A0130031D003049
:10294000F0007108F0040319B42C06302C00BD000F
:102950004C30BE006330BF000430C0000230C10004
:10296000803173259031E72C2B004508023A013065
:10297000031D0030F1004508033A0130031D00300B
:10298000F0007108F0040319D42C01302C00BD00B4
:102990000E30BE006330BF000430C0000230C10002
:1029A000803173259031E72C2B004508013A031D37
:1029B000E72C01302C00BD000D30BE006330BF009D
:1029C0000430C0000230C1008031732590316400B2
:0229D0000800FD
:1029D20064002B006F0826006A06031DF32C6908A9
:1029E2002B006E060319C02D2B006E082600E9008D
:1029F2002B006F082600EA0000302B006F06031D33
:102A0200042D01306E06031D452D4508043A0130A0
:102A1200031D0030F1004508053A0130031D003066
:102A2200F0007108F0040319252D02302C00BD00BE
:102A32004030BE00A030BF000030C0000430C100F2
:102A4200803173259031412D2B004508003A03193E
:102A5200392D01302C00BD000430BE006730BF00AC
:102A62000030C0000430C100803173259031412D07
:102A72002B004508003A031D412D22000D178D172A
:102A82002600E901EA01C02D2B006E082600E900AC
:102A92002B006F082600EA002B006E082C00BD00F8
:102AA2002B006F082C00BE005830BF000430C0005D
:102AB20080312426903128005B08E3002E30E400A8
:102AC2005C08E5005D08E6002B004508043A013089
:102AD200031D0030F1004508053A0130031D0030A6
:102AE200F0007108F0040319852D02302C00BD009E
:102AF2004030BE006330BF000430C0000430C1006B
:102B0200803173259031C02D2B004508003A0319FE
:102B1200992D01302C00BD000430BE006330BF008F
:102B22000430C0000430C100803173259031C02DC3
:102B32002B004508003A031DC02D8030F000803084
:102B42006F067002031DA72D6E08963C031CAD2D67
:102B520022000D138D17C02D8030F00080302B0025
:102B62006F067002031DB72D6E08FA3C031CBD2DC3
:102B720020000D138D13C02D20000D178D1364003E
:022B8200080049
:102B840026003008003A031D002E2B006E18CD2DB0
:102B940022008D11CF2D22008D152B00EE18D52D7E
:102BA40022000C11D72D22000C152B006E19DD2DDF
:102BB40022000D12DF2D22000D162B00EE19E52D3B
:102BC40022008C11E72D22008C152B006E1AED2D9E
:102BD40022008D12EF2D22008D162B00EE1AF52DFA
:102BE40022008C12F72D22008C162B006E1BFD2D5B
:102BF40022000C12FF2D22000C16382E2B006E180A
:102C0400062E22008D15082E22008D112B00EE18A1
:102C14000E2E22000C15102E22000C112B006E1902
:102C2400162E22000D16182E22000D122B00EE195E
:102C34001E2E22008C15202E22008C112B006E1AC1
:102C4400262E22008D16282E22008D122B00EE1A1D
:102C54002E2E22008C16302E22008C122B006E1B7E
:102C6400362E22000C16382E22000C122B0043089C
:102C74002C00B6002B0044082C00B7008831F12644
:042C84009031080083
:102C880064008831AE2490317008A0007108A1005A
:102C98000030A11BFF30A200A3008831212590310C
:102CA8007008A4007108A5000030A51BFF30A6001D
:102CB800A70021006C08013A031D832E2C00200870
:102CC800F0002108F1000330F4000030F5008831ED
:102CD800C726903170082C00B6007108B7008831FB
:102CE800E42590318031DE27903170082C00A8004F
:102CF8007108A9007208AA007308AB00A02E2C0066
:102D08002008F0002108F1002208F2002308F3004F
:102D18000330F400F501F601F70180313D259031CB
:102D280088318225903170082C00A8007108A9000C
:102D38007208AA007308AB0080302706F0008030C4
:102D480023067002031DB22E22082602031DB22E8E
:102D580021082502031DB22E20082402031CBB2EC5
:102D6800E730A0000330A100A201A301052F240829
:102D78002007F0002508213DF1002608223DF20039
:102D88002708233DF3006430F400F501F601F7014C
:102D980080313D2590312C002008F4002108F500F1
:102DA8002208F6002308F7002408F4022508F53B5A
:102DB8002608F63B2708F73B8831F823903170083E
:102DC8002C00A0007108A1007208A2007308A300DB
:102DD8008030F400803073067402031DFD2E7208E3
:102DE800003C031DFD2E7108033C031DFD2E7008D9
:102DF800E73C0318052FE730A0000330A100A2012B
:102E0800A30121006D08F00080316F2790312C005C
:102E18002808F4002908F5002A08F6002B08F7000E
:102E280080317E2790310030F4000030F5007A3090
:102E3800F6008830F70088313C23903170082C0068
:102E4800A8007108A9007208AA007308AB00F43042
:102E5800F400FD30F5003430F6007F30F70088319B
:102E68003C23903170082C00A8007108A900720852
:102E7800AA007308AB0020006F08013A031D6D2FEC
:102E88002C002808F0002908F1002A08F2002B0875
:102E9800F3002808F4002908F5002A08F6002B0892
:102EA800F70080317E2790310030F4000030F500C3
:102EB8004830F6008430F70088313C2390317008A0
:102EC8002C00A8007108A9007208AA007308AB00BA
:102ED800952F2C002808F0002908F1002A08F20094
:102EE8002B08F3002808F4002908F5002A08F60042
:102EF8002B08F70080317E2790310030F400003035
:102F0800F5002030F6008130F70088313C239031FD
:102F180070082C00A8007108A9007208AA0073089C
:102F2800AB002808F0002908F1002A08F2002B0855
:102F3800F3000030F4000030F5000030F6007E3079
:102F4800F70088319522903170082C00A80071088C
:102F5800A9007208AA007308AB00803113279031CA
:102F680070082B00C6007108C70080307106F20097
:102F780080307202031DC22F0A3070020318C92F55
:102F88000130C1000030C200EB2F80302C00230636
:102F9800F00080307002031DDB2F00302202031D79
:102FA800DB2F00302102031DDB2F643020020318C1
:102FB800E32FE7302B00C1000330C200EB2F2C00B9
:102FC80020082B00C1002C0021082B00C20008009B
:102FD8002B006618F22F22000E10F42F22000E1478
:102FE8002B0043082C00B6002B0044082C00B70027
:082FF8008831F1269031080038
:103000002B006608230091002B0067082300930023
:103010001513951315150B08F0008B1355309600FA
:10302000AA3096009514F01B17288B1318288B17BD
:0A3030001511951C1C281928080032
:10303A002B00EA01EB010130EC000030ED006430B6
:10304A004A02E70000304B3BE800C601C7016400B2
:10305A007830E900E6016908660203188128200031
:10306A008D18392876143A2876100D193E2803143B
:10307A003F28031076184528031845287610462855
:10308A00761420000D184B2803144C2803107618C8
:10309A00522803185228761053287614761C5F2873
:1030AA0088315427983127006908013A031D5F289F
:1030BA00E901080090314426983180306B06F0000F
:1030CA00803047067002031D6C2846086A020318FE
:1030DA0076284608EA004708EB004108EC00420857
:1030EA00ED001030FC009430FD00FD0B7A28FC0B3B
:1030FA007A280000E60A302864006A082700EC00F3
:10310A002B006B082700ED002B006C08EE006D0801
:10311A00EF009031E924983180302B006D06F000E1
:10312A0080307002031D9B2864306C02031CBA288D
:10313A0088318327983126006608F00080316F278E
:10314A00983126006208F4006308F5006408F60066
:10315A006508F70080317E2798318031132798312E
:10316A0070082700EA007108EB0080302B006D061A
:10317A00F00080304B067002031DC5284A086C0215
:10318A000130031C0030F000700826006805F500C5
:10319A0080306F06F30080302B006D067302031D2A
:1031AA00D9286C0826006E02260001300318003068
:1031BA00F3006E082B006C02F10026006F082B004A
:1031CA006D3BF20080306806F000803072067002B3
:1031DA00031DF12871086702013003180030F0005E
:1031EA0070087305F40080306D06F3008030260005
:1031FA006F067302031D04296E082B006C022B0054
:10320A00013003180030F3006C0826006E02F1004A
:10321A002B006D0826006F3BF20080302B006806F9
:10322A00F000803072067002031D1D2971086702C2
:10323A00013003180030F0007308F00570087404B8
:10324A00F10026006F08033A031D2D29E7306E06A8
:10325A000130031D0030F0007108F0047508F00514
:10326A00031939290130E70020008D183E29761408
:10327A003F2976100D19432903144429031076189F
:10328A004A2903184A2976104B29761420000D186A
:10329A00502903145129031076185729031857295E
:1032AA00761058297614761C642988315427983167
:1032BA0027006908013A031D6429E901080027006B
:1032CA006C082C00A00027006D082C00A1002B0020
:1032DA006C082C00A2002B006D082C00A300903172
:1032EA000020983120008D187C2976147D297610CB
:1032FA000D198129031482290310761888290318C5
:10330A00882976108929761420000D188E2903142D
:10331A008F2903107618952903189529761096296E
:10332A007614761CA2298831542798312700690817
:10333A00013A031DA229E901080064002600610878
:10334A00013A031D672B2B004508043A0130031D7F
:10335A000030F1004508053A0130031D0030F00045
:10336A007108F00403198B2A02302C00BD001030BA
:10337A00BE004630BF000330C0000830C1008031B3
:10338A00732598310330FB000830FC007730FD00CC
:10339A00FD0BCD29FC0BCD29FB0BCD2902302C00CE
:1033AA00BD001030BE003D30BF000330C000083001
:1033BA00C1008031732598310B30FB002630FC00A8
:1033CA005D30FD00FD0BE729FC0BE729FB0BE72924
:1033DA0000000000640002302C00BD001030BE0066
:1033EA005830BF000330C0000830C1008031732557
:1033FA0098310730FB001730FC006A30FD00FD0BE6
:10340A00042AFC0B042AFB0B042A00006400023085
:10341A002C00BD001030BE004F30BF000330C0008A
:10342A000830C1008031732598310B30FB002630FB
:10343A00FC005D30FD00FD0B202AFC0B202AFB0B53
:10344A00202A00000000640002302C00BD00103069
:10345A00BE00A030BF000330C0000830C100803178
:10346A00732598310730FB001730FC006A30FD00E5
:10347A00FD0B3D2AFC0B3D2AFB0B3D2A0000640094
:10348A0002302C00BD001030BE00DF30BF00033018
:10349A00C0000830C1008031732598310B30FB0021
:1034AA002630FC005D30FD00FD0B592AFC0B592A21
:1034BA00FB0B592A00000000640002302C00BD00FA
:1034CA001030BE00D630BF000330C0000830C10043
:1034DA008031732598310330FB000830FC007730C7
:1034EA00FD00FD0B762AFC0B762AFB0B762A0230AE
:1034FA002C00BD001030BE002930BF000430C000CF
:10350A000830C100803173259831592B2B004508AA
:10351A00003A0319592B01302C00BD00BE0120309E
:10352A00BF000430C0000830C100803173259831D3
:10353A000330FB000830FC007730FD00FD0BA32AA6
:10354A00FC0BA32AFB0BA32A01302C00BD00BE01F1
:10355A00CD30BF000330C0000830C1008031732570
:10356A0098310B30FB002630FC005D30FD00FD0B6E
:10357A00BC2AFC0BBC2AFB0BBC2A0000000064001E
:10358A0001302C00BD00BE01B230BF000330C000C4
:10359A000830C1008031732598310730FB0017309D
:1035AA00FC006A30FD00FD0BD82AFC0BD82AFB0B65
:1035BA00D82A0000640001302C00BD00BE01A930E9
:1035CA00BF000330C0000830C10080317325983134
:1035DA000B30FB002630FC005D30FD00FD0BF32AAA
:1035EA00FC0BF32AFB0BF32A0000000064000130F5
:1035FA002C00BD00BE01C430BF000330C00008303B
:10360A00C1008031732598310730FB001730FC0068
:10361A006A30FD00FD0B0F2BFC0B0F2BFB0B0F2B46
:10362A000000640001302C00BD00BE01BB30BF00A9
:10363A000330C0000830C1008031732598310B3047
:10364A00FB002630FC005D30FD00FD0B2A2BFC0B35
:10365A002A2BFB0B2A2B00000000640001302C00EF
:10366A00BD00BE013330BF000130C0000830C100C8
:10367A008031732598310330FB000830FC00773025
:10368A00FD00FD0B462BFC0B462BFB0B462B01309A
:10369A002C00BD00BE012A30BF000130C000083036
:1036AA00C100803173259831640010302600E9008A
:1036BA002730EA002B006C08EE006D08EF0090310D
:0636CA00E924983108001C
:1036D000710DF80DF90D7408F8027508031C750FCB
:1036E000F902F00DF10D0F30FC00710DF80DF90D20
:1036F0007408701C812BF8027508031C750FF90201
:10370000862BF80775080318750FF907F00DF10DF2
:10371000FC0B752B7018922B7408F80775080318AA
:08372000750FF9070000080015
:103728008831E427983101302600BC0001302B0095
:10373800E6009031EC27983126002808F000053083
:10374800F4008031B92098317008FF3C2B00E60066
:10375800E701002026002808F0000530F400803139
:10376800B92098317008FE3C2B00E600E7010020E4
:1037780026002808F0000530F4008031B92098317F
:103788007008FD3C2B00E6000130E7000020260011
:103798002808F0000530F4008031B920983170080D
:1037A800FC3C2B00E600E701002026002808F0007A
:1037B8000530F4008031B92098317008FB3C2B00AB
:1037C800E600E70100208831002098312600AA0190
:1037D80022008C130C172B00C101C201C601C701BE
:1037E8002600EE01EF012B004508043A0130031DC5
:1037F8000030F1004508053A0130031D0030F000A3
:103808007108F0040319352C02302C00BD0010306B
:10381800BE004D30BF000430C0000830C100803108
:103828007325983164000D30FB002D30FC00D73033
:10383800FD00FD0B1D2CFC0B1D2CFB0B1D2C000093
:10384800000002302C00BD001030BE004430BF0024
:103858000430C0000830C1008031732598316400FD
:10386800682C2B004508003A0319652C01302C0000
:10387800BD00BE013B30BF000430C0000830C100AD
:1038880080317325983164000D30FB002D30FC0029
:10389800D730FD00FD0B4E2CFC0B4E2CFB0B4E2C99
:1038A8000000000001302C00BD00BE013230BF0016
:1038B8000430C0000830C10080317325983164009D
:1038C800682C22000D178D1710302600E9002730CC
:0E38D800EA001030EC002730ED001D20080043
:1038E60090314426983126006B08643A03198E2CD1
:1038F600EB0A80302B004906F00080304706700244
:10390600031D872C4608480203188D2C4608C8005C
:103916004708C900A62C2600EB012B0048082C00FE
:10392600A0002B0049082C00A1002B0041082C0008
:10393600A2002B0042082C00A300903100209831F1
:103946002B00C801C90180304706F20080304D06C1
:103956007202031DB02C4C084602013003180030D9
:10396600F20080304F06F100803047067102031DD9
:10397600BE2C46084E02013003180030F10080309C
:10398600F00080304F067002031DCB2C4E08003C21
:10399600013003180030F0007108F0057208F004D9
:1039A60003193B2D640090314426983126006B089C
:1039B600643A0319F12CEB0A80302B004906F0001B
:1039C600803047067002031DEA2C46084802031899
:1039D600F02C4608C8004708C900092D2600EB014F
:1039E6002B0048082C00A0002B0049082C00A10041
:1039F6002B0041082C00A2002B0042082C00A3003B
:103A06009031002098312B00C801C9010D302C00DF
:103A1600B6000030B700B8010530B9000130BA0071
:103A26008831A5259831700803191C2D013027000F
:103A3600E80027006808013A0130031D00302B001A
:103A4600E5000D302C00B6000030B700B801053097
:103A5600B900BA018831A52598312B006508F00513
:103A660003193A2D94232B00C101C2010800A62C8C
:023A7600080046
:103A78007408003A031D492D7508003A031D492DA5
:103A8800FF30F0007F30F10008002000FD01F9014F
:103A9800F801710870040319003471087506FA00FA
:103AA800FA1BFD09FB01F51F5E2DF409F509F40A5F
:103AB8000319F50AF11F652DF009F109F00A031938
:103AC800F10A71087504FA00FA1B7A2D68237B182D
:103AD8008D2DFD1F0034F009F109F00A0319F10AD0
:103AE800F809F909F80A0319F90A0034F51F892DAC
:103AF800F11B852D7108F9007008F800F101F0013B
:103B08006D2DF101F001F00A0034F109F009FB0A0A
:103B18006A2DF80A0319F90A74087802031D6D2D35
:103B280075087902031D6D2DF901F801F00A0319D2
:0C3B3800F10AF11F6D2D0000FF340800A1
:103B440003302B00E4002600B9012B00EE0188317C
:103B5400A22798312B0064082600AE00732400309D
:103B64004206031DB72D00304106031DBA2D08007F
:103B74001430F4000030F5004108F0004208F10070
:103B84003C2570082B004107E2007108423DE30028
:103B94006408E10061081F3C031C532E6108F00017
:103BA40026002B08F4008031B920983170082B00CE
:103BB400EE008831A2279831732400304206031D99
:103BC400E52D00304106031DE82D08008030420633
:103BD400F000803063067002031DF22D620841027A
:103BE4000318512E1430F4000030F5004108F000A1
:103BF4004208F1003C2570082B004107E2007108DF
:103C0400423DE3006108F00026002B08F4008031F7
:103C1400B920983170082600B9002B0064082600EA
:103C2400AE0080302B004206F00080307002031D8D
:103C34001D2E783041020318202E532E640861078C
:103C4400F2007208E10026002908003A0130031D41
:103C54000030F1007208093A0130031D0030F00011
:103C64007108F00503193A2E08302B00E100502E9C
:103C740026002908003A0130031D0030F1002B0012
:103C84006108113A0130031D0030F0007108F0059D
:103C94000319502E1030E1000430E400522E532E4C
:103CA400CC2D260039082B00EE008831A22798314C
:023CB400080006
:103CB60003302B00E000DC0160082600AC00033076
:103CC6002B00DD001430F4000030F5004108F00050
:103CD6004208F1003C2570082B004107DE00710800
:103CE600423DDF00DB015B081F3C031C022F5B0823
:103CF600F00026002F08F4008031B92098317008B2
:103D06002B00EE009031C2259831A2257324003095
:103D16004206031D902E00304106031D932E080017
:103D260080304206F00080305F067002031D9D2E33
:103D36005E0841020318002F1430F4000030F5002D
:103D46004108F0004208F1003C2570082B004107AD
:103D5600DE007108423DDF005B08F00026002F08F8
:103D6600F4008031B920983170082600BA0039086D
:103D76002B00DC0060082600AC002E082B00DD00BE
:103D860080304206F00080307002031DCC2E783061
:103D960041020318CF2E022F60085B07F20072085B
:103DA600DB0026002D08003A0130031D0030F1002B
:103DB6007208093A0130031D0030F0007108F00561
:103DC6000319E92E08302B00DB00FF2E26002D08F4
:103DD600003A0130031D0030F1002B005B08113A58
:103DE6000130031D0030F0007108F0050319FF2EA5
:103DF6001030DB000430E000012F022F762E5C0825
:103E06002600B9003A082B00EE009031C225983101
:103E1600260039082B00EE008831A22798312B00A6
:103E26005D082600AE003430FC00F130FD00FD0BCD
:0C3E36001A2FFC0B1A2F000000000800DF
:103E420026002E08F0002B08F4008031B9209831AA
:103E520070082B00DB00700826003907F400740894
:103E62002B00DD000530F20026002B08F000F101E6
:103E720072080319402FF035F10DFF3E3A2F013041
:103E82007002F2000030713BF30080307306F000E4
:103E920080307002031D4F2F7408720203185E2FC8
:103EA20026000530F0002B082B00DD0070080319F6
:103EB2005D2FDD35FF3E582FDD03260039082B002C
:103EC2005B0203186A2F5B08260039022B00DE0012
:103ED2006B2FDE015E082600B9002B005E08EE00A3
:103EE2008831A2279831732400304206031D7B2FAC
:103EF20000304106031D7E2F08004108DF00420802
:103F0200E00026002B082B005E07DC005C085D0247
:103F1200031CEF2F5C08EE008831A227983173242E
:103F220000304206031D972F00304106031D9A2FD1
:103F3200080080304206F000803060067002031DE7
:103F4200A42F5F084102031CB12F3430FC00F13072
:103F5200FD00FD0BAA2FFC0BAA2F0000000073240A
:103F620080304206F000803060067002031DBB2FD5
:103F72005F084102031CC82F3430FC00F130FD0001
:103F8200FD0BC12FFC0BC12F0000000073248030F9
:103F92004206F000803060067002031DD22F5F08D7
:103FA20041020318E92F4108DF004208E0005C08E3
:103FB2002600B90080302B004206F00080307002EB
:103FC200031DE52F783041020318E82FEF2FEA2F67
:103FD200EF2F26002B082B00DC07872F260039083D
:0C3FE2002B00EE008831A2279831080067
:103FEE0012001E00F003031DF72FF103031DF72F20
:023FFE000800B9
:1040000026002C08F0002F08F4008031B920A031E0
:1040100070082B00DB00700826003A07F4007408D3
:104020002B00DD000530F20026002F08F000F10122
:10403000720803191F28F035F10DFF3E19280130D1
:104040007002F2000030713BF30080307306F00024
:1040500080307002031D2E287408720203183D2858
:1040600026000530F0002F082B00DD007008031932
:104070003C28DD35FF3E3728DD0326003A082B00BB
:104080005B02031849285B0826003A022B00DE0079
:104090004A28DE015E082600BA002B005E08EE000A
:1040A0009031C225A03198317324A03100304206EE
:1040B000031D5C2800304106031D5F2808004108ED
:1040C000DF004208E00026002F082B005E07DC001E
:1040D0005C085D02031CD6285C08EE009031C22506
:1040E000A03198317324A03100304206031D7A2894
:1040F00000304106031D7D28080080304206F00094
:10410000803060067002031D87285F084102031C8F
:1041100096283430FC00F130FD00FD0B8D28FC0B9F
:104120008D280000000098317324A03180304206B1
:10413000F000803060067002031DA0285F08410275
:10414000031CAF283430FC00F130FD00FD0BA62825
:10415000FC0BA6280000000098317324A0318030A9
:104160004206F000803060067002031DB9285F0827
:1041700041020318D0284108DF004208E0005C0833
:104180002600BA0080302B004206F000803070021A
:10419000031DCC28783041020318CF28D628D12817
:1041A000D62826002F082B00DC07682826003A08AE
:0C41B0002B00EE009031C225A031080069
:1041BC002B004108D5004208D60098315B26A0316F
:1041CC0000302B004206031DED2800304106031D74
:1041DC00F3288831E427A031080098317324A031EA
:1041EC0080304206F00080307002031DFF287830CA
:1041FC004102031802290800002000302B0042065F
:10420C00031D0A2900304106031D10298831E427BB
:10421C00A031080098317324A03180304206F000A0
:10422C0080307002031D1C297830410203181F29AD
:10423C00080098312127A03100302B004206031DC5
:10424C00292900304106031D2F298831E427A0318C
:10425C00080098317324A03180304206F000803081
:10426C007002031D3B297830410203183E290800D7
:10427C0080304206F10080307102031D4729C8309E
:10428C004102013003180030F10080304206F0008A
:10429C00803056067002031D552955084102013025
:1042AC0003180030F00070087105F3004108550246
:1042BC00F1004208563BF2008030F000803072066C
:1042CC007002031D6B297108643C01300318003027
:1042DC00F0007308F0050319742908004108D50093
:1042EC004208D60026003A082B00D700D801260039
:1042FC0039082B00D900DA0126003C08013A031DCD
:10430C008929BC018B290130BC008831E427A031FC
:10431C0026003C082B00E6009031EC27A03102303F
:10432C00FB000430FC00BA30FD00FD0B9B29FC0B9C
:10433C009B29FB0B9B29000098317324A031803002
:10434C004206F00080307002031DAE297830410225
:10435C000318B129080098315B26A03100302B00DE
:10436C004206031DBB2900304106031DC1298831BB
:10437C00E427A031080098317324A0318030420624
:10438C00F00080307002031DCD29783041020318F3
:10439C00D0290800002000302B004206031DD8292C
:1043AC0000304106031DDE298831E427A0310800C6
:1043BC0098317324A03180304206F00080307002B6
:1043CC00031DEA29783041020318ED2908009831C1
:1043DC002127A03100302B004206031DF7290030A5
:1043EC004106031DFD298831E427A03108009831CE
:1043FC007324A03180304206F00080307002031D1F
:10440C00092A7830410203180C2A0800803056061D
:10441C00F000803042067002031D162A4108550236
:10442C000318412A26003C08013A031D1F2ABC012F
:10443C00212A0130BC003C082B00E6009031EC270F
:10444C00A0312B0057082600BA002B005908260073
:10445C00B9002B005708EE009031C225A031260080
:10446C0039082B00EE008831A227A0312B0055080B
:0A447C00C1005608C20064000800E9
:1044860064002600EB012B00C801C9012700E801E2
:1044960098317324A03180304206F00080307002DB
:1044A600031D572A6E30410203185A2A0800883124
:1044B600E427A03121002E08003A031D652A883121
:1044C6000020A0310230FB000430FC00BA30FD00B1
:1044D600FD0B6B2AFC0B6B2AFB0B6B2A0000983139
:1044E6007324A03141082800D6002B00420828007A
:1044F600D70080302B004206F00080307002031D8A
:10450600862A6E3041020318892A08008030F1009D
:10451600803040067102031D922A3F086E3C01302E
:1045260003180030F10080304006F000803042066B
:104536007002031DA02A41083F0201300318003013
:10454600F0007108F0050319A92A0800DE200030E2
:104556002B004206031DB12A00304106031DB72A6F
:104566008831E427A031080080304206F000803010
:104576007002031DC02A783041020318C32A0800BE
:1045860021006E08053A0130031D0030F1006F0866
:10459600053A0130031D0030F0007108F0050319DB
:1045A600D52A08006F08053C0318DF2A26002F08C5
:1045B600AC000130AF00002080302B004206F00036
:1045C60080307002031DE92A783041020318EC2A74
:1045D600080021006E08053C0318F92A26002B085E
:1045E600AE000130AB0098312127A03121006F08C1
:1045F600053A031D022B01302600AF00132B2100C4
:104606006F08063A031D0B2B02302600AF00132B52
:1046160021006F08073A031D132B04302600AF0054
:1046260021006E08053A031D1C2B01302600AB0045
:104636002D2B21006E08063A031D252B023026007D
:10464600AB002D2B21006E08073A031D2D2B0430DD
:084656002600AB00640008001F
:10465E0064002B004508043A0130031D0030F100C0
:10466E004508053A0130031D0030F0007108F004D2
:10467E000319212C21004D08003A031DD32B2C00C9
:10468E00BD011630BE002030BF000330C000073021
:10469E00C10080317325A03102302C00BD000630E0
:1046AE00BE00E630BF000230C0000930C1008031CC
:1046BE007325A03104302C00BD001030BE00DD305B
:1046CE00BF000230C0000830C10080317325A03118
:1046DE0006302C00BD000430BE00C630BF000230D4
:1046EE00C0000A30C10080317325A03164000D3046
:1046FE00FB002D30FC00D730FD00FD0B842BFC0B96
:10470E00842BFB0B842B0000000064000B30FB009D
:10471E002630FC005D30FD00FD0B932BFC0B932B24
:10472E00FB0B932B0000000064002C00BD01103029
:10473E00BE006430BF000230C0000830C1008031BE
:10474E007325A03102302C00BD000430BE0059305C
:10475E00BF000230C0000A30C10080317325A03185
:10476E0004302C00BD001030BE005030BF000230AF
:10477E00C0000830C10080317325A03106302C00F6
:10478E00BD000430BE00A030BF000230C0000A30B1
:10479E00C10080317325A0310430FB000C30FC00C9
:1047AE003330FD00FD0BD92BFC0BD92BFB0BD92B7A
:1047BE000000000020006F08013A031DF42B2C00AE
:1047CE00BD011030BE00BD30BF000230C000083049
:1047DE00C10080317325A031012C2C00BD01103099
:1047EE00BE00B430BF000230C0000830C1008031BE
:1047FE007325A03102302C00BD001030BE00AB304E
:10480E00BF000230C0000830C10080317325A031D6
:10481E00260068080319202C2C00BD017030BE0044
:10482E00DA30BF000130C0000130C1008031732585
:10483E00A031022D2B004508003A0319022D21004C
:10484E004D08003A031DB82C2C00BD010430BE00EB
:10485E00D230BF000130C0000730C1008031732557
:10486E00A03101302C00BD000330BE00C830BF00A7
:10487E000130C0000930C10080317325A0316400C1
:10488E000F30FB003530FC005130FD00FD0B4D2C80
:10489E00FC0B4D2CFB0B4D2C64000B30FB0026301B
:1048AE00FC005D30FD00FD0B5A2CFC0B5A2CFB0B53
:1048BE005A2C0000000064002C00BD010430BE0024
:1048CE00DC30BF000130C0000830C10080317325DC
:1048DE00A03101302C00BD000330BE002930BF00D6
:1048EE000230C0000A30C10080317325A03164004F
:1048FE000D30FB002D30FC00D730FD00FD0B852C5C
:10490E00FC0B852CFB0B852C0000000064000B308B
:10491E00FB002630FC005D30FD00FD0B942CFC0BE3
:10492E00942CFB0B942C0000000064002C00BD01A5
:10493E000430BE002030BF000230C0000830C1007D
:10494E0080317325A03101302C00BD000330BE0034
:10495E00E530BF000130C0000A30C1008031732540
:10496E00A0310430FB000C30FC003330FD00FD0B99
:10497E00BE2CFC0BBE2CFB0BBE2C0000000020003E
:10498E006F08013A031DD82C2C00BD01BE01673003
:10499E00BF000130C0000830C10080317325A03146
:1049AE00E42C2C00BD01BE015E30BF000130C00002
:1049BE000830C10080317325A03101302C00BD00BC
:1049CE00BE015530BF000130C0000830C10080313B
:1049DE007325A031260068080319022D2C00BD0195
:1049EE000830BE005330BF000130C0000130C1009E
:1049FE0080317325A031640088310020A031080079
:104A0E002000F8010830FC00700DF80D7408F80253
:104A1E000318132DF8070310F00DFC0B0B2D0800D7
:104A2E009F302B00B4000330B5003D30B600063089
:0E4A3E00B700F03021009E009D011D140800FD
:104A4C0064002B004508043A0130031D0030F100CE
:104A5C004508053A0130031D0030F0007108F004E0
:104A6C000319472D02302C00BD004030BE00D13060
:104A7C00BF000230C0000430C10080317325A0316A
:104A8C005E2D2B004508003A03195B2D01302C00DC
:104A9C00BD000430BE00D830BF000230C00004306E
:104AAC00C10080317325A0315E2D22000D178D17AA
:104ABC0043222B004508003A031D872D8030F0005F
:104ACC00803042067002031D6D2D4108963C031C7C
:104ADC00732D22000D138D17862D8030F000803041
:104AEC002B0042067002031D7D2D4108FA3C031C6D
:104AFC00832D20000D138D13862D20000D178D1383
:104B0C009C2D26002A08003A0130031D0030F100CC
:104B1C0021002E08003A0130031D0030F00071080E
:104B2C00F00403199C2D88310020A03126002808A0
:104B3C00F0000530F4008031B920A0317008FF3C42
:104B4C002B00E600260039082B00E70098310020E6
:104B5C00A03126002808F0000530F4008031B9207F
:104B6C00A0317008FE3C2B00E60026003A082B0012
:104B7C00E70098310020A03126002808F00005300D
:104B8C00F4008031B920A0317008FD3C2B00E60008
:104B9C0026003C082B00E70098310020A0312600AD
:104BAC002808F0000530F4008031B920A0317008DD
:104BBC00FC3C2B00E60028005708F0000030D71B07
:104BCC00FF30F10070082B00E70098310020A03175
:104BDC0026002808F0000530F4008031B920A031FF
:104BEC007008FB3C2B00E6000030F4000130F500AF
:104BFC0028005608F0005708F10098313C25A031E8
:104C0C007808F0007908F10070082B00E700983163
:104C1C000020A03110302600E9002730EA001030C7
:104C2C00EC002730ED0098311D20A0312B004108FD
:104C3C002600EE002B0042082600EF0022008C1309
:064C4C000C1764000800D3
:104C52002B00530823009100951315131514130804
:044C6200F000080056
:104C66002B005308F000F036F036F036F0360A30F6
:104C7600F4008031B920A0310F302B005305F1002C
:064C86007108F0070800B0
:104C8C002B00D3013908003A0319832E21008D170C
:104C9C00F1017108073C031C712E2B00D335FE303B
:104CAC00D3050630FD00FD0B592E000021000D1719
:104CBC000630FD00FD0B602E000020008D1F682EBD
:104CCC002B00D30A21000D130630FD00FD0B6C2EBA
:104CDC000000F10A4F2E8D170630FD00FD0B742ECF
:104CEC0000000D170630FD00FD0B7A2E00000D1391
:104CFC000630FD00FD0B802E00002B005308F00049
:024D0C0008009D
:104D0E002B004508043A0130031D0030F100450820
:104D1E00053A0130031D0030F0007108F00403194C
:104D2E00A62E2C00BD010A30BE00A030BF000130FF
:104D3E00C0000930C10080317325A031B82E2B0080
:104D4E004508003A0319B82E2C00BD010330BE00F1
:104D5E00BE30BF000130C0000930C1008031732564
:104D6E00A03164000B30FB002630FC005D30FD00EE
:104D7E00FD0BBF2EFC0BBF2EFB0BBF2E0000000049
:104D8E0064000B30FB002630FC005D30FD00FD0B97
:104D9E00CE2EFC0BCE2EFB0BCE2E000000006400A0
:104DAE000B30FB002630FC005D30FD00FD0BDD2ED0
:104DBE00FC0BDD2EFB0BDD2E0000000064000B3023
:104DCE00FB002630FC005D30FD00FD0BEC2EFC0BD5
:104DDE00EC2EFB0BEC2E0000000064002B004508AF
:104DEE00043A0130031D0030F1004508053A013048
:104DFE00031D0030F0007108F0040319142F2C006D
:104E0E00BD010A30BE00B430BF000130C000093011
:104E1E00C10080317325A031262F2B004508003AA2
:104E2E000319262F2C00BD010330BE00AA30BF008F
:104E3E000130C0000930C10080317325A0318831A6
:104E4E00E427A03101302600BC0001302B00E60023
:104E5E009031EC27A03126002808F0000530F40030
:104E6E008031B920A0317008FF3C2B00E6002600EF
:104E7E0039082B00E70098310020A03126002808C1
:104E8E00F0000530F4008031B920A0317008FE3CEE
:104E9E002B00E60026003A082B00E7009831002090
:104EAE00A03126002808F0000530F4008031B9202A
:104EBE00A0317008FD3C2B00E60026003C082B00BC
:104ECE00E70098310020A0312B004508043A01304C
:104EDE00031D0030F1004508053A0130031D003076
:104EEE00F0007108F00403198A2F2C00BD017030F8
:104EFE00BE003630BF000230C0000130C10080312C
:104F0E007325A0319C2F2B004508003A03199C2FC6
:104F1E002C00BD010830BE003430BF000230C0008E
:104F2E000130C10080317325A03101302100CD0048
:044F3E002F23080015
:104F42002B003908013C0318AD2FAE302C00B600FF
:104F520080310227A031BE2F2B003908013A031DF0
:104F6200BE2FBE01BD012C00C7018031FD20A03142
:0C4F72002C00C7018031FD20A031080098
:104F7E002B00D2015108093C0318DE2F0A30F40031
:104F8E005108F000072570082B00D2007008D200DF
:104F9E00D235D235D235D2350A30F4005108F00070
:104FAE0007257808F00070082B00D204E02F510876
:084FBE00D2005208F0000800C7
:1050000080313E20A8312B003C082F00A9008031C0
:105010000320A8312F00A90180310320A831AE3030
:105020002F00A90080310320A8312B003908023A53
:105030000130031D0030F1003908033A0130031D2F
:105040000030F0007108F0040319DC28D5302F007F
:10505000A90080310320A83180302F00A9008031C1
:105060000320A831A8302F00A90080310320A831E7
:105070003F302F00A90080310320A831D3302F000A
:10508000A90080310320A8312B003908023A031D02
:10509000502838082F00A90080310320A831582853
:1050A0002B0038081F3E2F00A90080310320A831B3
:1050B00040302F00A90080310320A8318D302F000F
:1050C000A90080310320A83114302F00A9008031BD
:1050D0000320A83181302F00A90080310320A8319E
:1050E000B4302F00A90080310320A831D9302F001F
:1050F000A90080310320A83122302F00A90080317F
:105100000320A83120302F00A90080310320A831CE
:1051100002302F00A90080310320A83121302F0058
:10512000A90080310320A8312F00A901803103207C
:10513000A8317F302F00A90080310320A8312E3004
:105140002F00A90080310320A8312B003908023A32
:10515000031DB728A0302F00A90080310320A831FB
:10516000C0302F00A90080310320A831C328A1300E
:105170002F00A90080310320A831C8302F00A900DA
:1051800080310320A831DA302F00A90080310320BC
:10519000A83102302F00A90080310320A831DB3074
:1051A0002F00A90080310320A83140302F00A90032
:1051B00080310320A8318429D5302F00A900803107
:1051C0000320A83180302F00A90080310320A831AE
:1051D000A8302F00A90080310320A8313F302F00D4
:1051E000A90080310320A831D3302F00A9008031DD
:1051F0000320A8312B0038082F00A900803103209C
:10520000A83140302F00A90080310320A8318D3013
:105210002F00A90080310320A83114302F00A900ED
:1052200080310320A83181302F00A9008031032074
:10523000A831FF302F00A90080310320A831D930D8
:105240002F00A90080310320A831F1302F00A900E0
:1052500080310320A83120302F00A90080310320A5
:10526000A83102302F00A90080310320A83121305D
:105270002F00A90080310320A8312F00A90180311F
:105280000320A8317F302F00A90080310320A831EE
:105290002E302F00A90080310320A8312B003908BF
:1052A000043A031D6029A0302F00A900803103209B
:1052B000A831C0302F00A90080310320A8316C290B
:1052C000A1302F00A90080310320A831C8302F0061
:1052D000A90080310320A831DA302F00A9008031E5
:1052E0000320A83112302F00A90080310320A831FB
:1052F000DB302F00A90080310320A83140302F007F
:10530000A90080310320A831A4302F00A9008031EA
:105310000320A831A6302F00A90080310320A83136
:105320008031D120A8310330FB000830FC007730F9
:10533000FD00FD0B9929FC0B9929FB0B9929803164
:105340003E20A8312B003C082F00A900803103200B
:10535000A83140302F00A90080310320A8312B0054
:105360003908023A0130031D0030F1003908033AD0
:105370000130031D0030F0007108F0040319DE292C
:10538000D4015408033C031CDD2954082F00A3005A
:10539000A40180315D20A8312B00D3012B00803087
:1053A00053020318DA29D30A2F00A9018031032000
:1053B000A831CE292B00D40AC129FB29D4015408D5
:1053C000073C031CFB2954082F00A300A4018031D3
:1053D0005D20A8312B00D3012B008030530203182D
:1053E000F829D30A2F00A90180310320A831EC2924
:1053F0002B00D40ADF298031D120A831AF302C0016
:0A540000B60080310227A831080031
:10540A000D302C00B6000030B700B8013230B900B8
:10541A00BA018831A525A83170080319BD2A0630BA
:10542A00FB001330FC00AD30FD00FD0B1A2AFC0B0B
:10543A001A2AFB0B1A2A00000000640020000D1C27
:10544A00392A26003C08003A031D2E2A0130BC00E6
:10545A002F2ABC013C082B00E6009031EC27A8312A
:10546A0088310020A831A92A26003B08013A031DE9
:10547A00402ABB01422A0130BB003B08013A031D06
:10548A00782A2B004508043A0130031D0030F10048
:10549A004508053A0130031D0030F0007108F00498
:1054AA000319652A2C00BD017030BE003330BF00DD
:1054BA000330C0000130C10080317325A831772A3A
:1054CA002B004508003A0319772A2C00BD01083041
:1054DA00BE003130BF000330C0000130C10080314E
:1054EA007325A831A92A2B004508043A0130031D67
:1054FA000030F1004508053A0130031D0030F00084
:10550A007108F0040319972A2C00BD017030BE00FF
:10551A003730BF000330C0000130C100803173252D
:10552A00A831A92A2B004508003A0319A92A2C00F8
:10553A00BD010830BE003530BF000330C000013065
:10554A00C10080317325A8310D302C00B60000301F
:10555A00B700B8013230B900BA018831A525A8319F
:10556A0070080319BD2A98311D20A8316400A92AA0
:10557A000D302C00B6000030B7000230B8003230CF
:10558A00B900BA018831A525A83170080319412B41
:10559A00640020000D19412B0530F20026002F0867
:1055AA00F000F10172080319DE2AF035F10DFF3E11
:1055BA00D82A01307002F2000030713BF3008030CB
:1055CA00F000803073067002031DEE2A260072086E
:1055DA003A022600013003180030F0003B08F005BB
:1055EA000319FF2ABA0A3A082B00EE009031C225A5
:1055FA00A831312B26003B080130031D0030F4008E
:10560A000530F2002F08F000F10172080319112B7E
:10561A00F035F10DFF3E0B2B01307002F200003025
:10562A00713BF3008030F000803073067002031D76
:10563A00212B260072083902013003180030F000CD
:10564A007408F0050319312B2600B90A39082B0012
:10565A00EE008831A227A83188310020A83198317C
:10566A001D20A8319C30FC00D730FD00FD0B3B2BE0
:10567A00FC0B3B2B6400CE2A0D302C00B600003008
:10568A00B7000130B8003230B900BA018831A52517
:10569A00A83124006F08003A0130031D0030F100E0
:1056AA007108F0050319972B640020008D18972BB9
:1056BA0026003A08003C013003180030F0003B088D
:1056CA00F0050319702BBA033A082B00EE0090314B
:1056DA00C225A831872B26003B080130031D003064
:1056EA00F1003908003C013003180030F00071085D
:1056FA00F0050319872BB90339082B00EE0088310E
:10570A00A227A83188310020A83198311D20A8315C
:10571A009C30FC00D730FD00FD0B912BFC0B912B2C
:06572A0064005A2B080088
:10573000260028092B00D100F030D1048530FD006F
:10574000FD0BA02B640080313E20A83140302F009B
:10575000A90080310320A8312B0051082F00A90097
:1057600080310320A8318031D120A83164008530F8
:10577000FD00FD0BB92B640080313E20A831413083
:105780002F00A90080310320A831A0314626A8317E
:105790007008D1008031D120A83164002B0051095C
:1057A0002600A800A836A836A836A8360F30A805C7
:0257B0000800EF
:1057B20026002808F0000530F4008031B920A83115
:1057C2007008FF3C2B00D300A0312926A8317008B5
:1057D2002600B9002808F0000530F4008031B92015
:1057E200A8317008FE3C2B00D300A0312926A83135
:1057F20070082600BA002808F0000530F400803155
:10580200B920A8317008FD3C2B00D300A031292615
:10581200A83170082600BC002808F0000530F4000A
:105822008031B920A8317008FC3C2B00D300A03194
:105832002926A83170082800D700D601260028089A
:10584200F0000530F4008031B920A8317008FB3C2B
:105852002B00D300A0312926A83170082800D607D2
:105862000030D73D26003A082B00EE009031C225C9
:10587200A831260039082B00EE008831A227A83172
:1058820026003C082B00E6009031EC27A8310800E6
:1058920027006E082C00BD00BE015830BF00043046
:1058A200C00080312426A8310A3027006E02031C72
:1058B2005E2C28005C08E300612C28003030E300F5
:1058C2002E30E4005D08E5002B004508043A013063
:1058D200031D0030F1004508053A0130031D003078
:1058E200F0007108F0040319852C04302C00BD006F
:1058F2000630BE006330BF000430C0000330C10078
:1059020080317325A831972C2B004508003A0319E2
:10591200972C01302C00BD00BE016330BF00043063
:0E592200C0000330C10080317325A831080099
:10593000640001302B00D300A0312926A831700863
:105940002B00C5000230D300A0312926A8317008F1
:10595000013A031DAE2C01302600E80003302B0075
:10596000D300A0312926A83170082B00D300A03124
:105970003326A8317008C300C4010430D300A0311D
:105980002926A83170082B00D300A0313326A83176
:105990000A30F4008031B920A83170082B00CA0009
:1059A0007108CB000530D300A0312926A83170083A
:1059B0002B00D300A0313326A8310A30F400803107
:1059C000B920A83170082B00CC007108CD0006303A
:1059D000D300A0312926A83170082B00D300A031B4
:1059E0003326A8310A30F4008031B920A83170087C
:1059F0002B00CE007108CF000930D300A03129263A
:105A0000A83170082B00D300A0313326A8310A300A
:105A1000F4008031B920A83170082B00BF00710854
:105A2000C0000A30D300A0312926A8317008210017
:105A3000EF000B302B00D300A0312926A8317008CD
:105A40002600AD000C302B00D300A0312926A83150
:105A500070082100EE000D302B00D300A031292664
:105A6000A83170082600A9000E302B00D300A03109
:105A70002926A83170082100EC000F302B00D3003C
:105A8000A0312926A83170082600B000640010302B
